:020000040800F2
:1000000038130020AD010008291200082912000849
:1000100029120008291200082912000829120008D4
:1000200029120008291200082912000829120008C4
:1000300029120008291200082912000829120008B4
:1000400029120008291200082912000829120008A4
:100050002912000829120008291200082912000894
:100060002912000829120008291200082912000884
:100070002912000829120008291200082912000874
:100080002912000829120008291200082912000864
:100090002912000829120008291200082912000854
:1000A0002912000829120008291200082912000844
:1000B0002912000829120008291200082912000834
:1000C0002912000829120008291200082912000824
:1000D0002912000829120008291200082912000814
:1000E0002912000829120008291200082912000804
:1000F00029120008291200082912000829120008F4
:1001000029120008291200082912000829120008E3
:1001100029120008291200082912000829120008D3
:1001200029120008291200082912000829120008C3
:1001300029120008291200082912000829120008B3
:1001400029120008291200082912000829120008A3
:100150002912000829120008291200082912000893
:100160002912000829120008291200082912000883
:100170002912000829120008291200082912000873
:100180002912000829120008291200082912000863
:100190002912000829120008291200082912000853
:1001A00029120008291200082912000880B582B01F
:1001B00000AF00F09DF900F0A1FB00F0A9F9114B90
:1001C0003B6004E03B681A1D3A6000221A603B68FD
:1001D0000D4A9342F6D30D4B7B600D4B3B6007E01D
:1001E0003B681A1D3A607A68111D796012681A60BE
:1001F0003B68084A9342F3D300F068FF01F0B8FB74
:1002000001F066FDB40400203C0F00200CBE010884
:1002100000000020B404002080B483B000AF174B6E
:100220001B687B607B6843F001037B60134A7B683B
:100230001360134B00221A60104B1B687B607B68B5
:1002400023F0847323F480337B600C4A7B68136053
:100250000C4B0D4A1A60094B1B687B607B6823F4CA
:1002600080237B60054A7B681360084B00221A607C
:100270000C37BD465DF8047B704700BF0038024074
:100280000838024004380240103000240C38024084
:1002900080B483B000AF084B1B687B607B686FEA5B
:1002A00053236FEA43237B60034A7B6813600C3758
:1002B000BD465DF8047B70473038024080B483B09F
:1002C00000AF054B1B687B60034A7B6813600C37EB
:1002D000BD465DF8047B70473438024080B400AFFF
:1002E000BD465DF8047B704780B483B000AF074B18
:1002F0001B687B607B6843F080537B60034A7B68AC
:1003000013600C37BD465DF8047B704740380240EF
:1003100080B483B000AF094B1B687B607B6843F0FF
:1003200010037B607B6843F480437B60034A7B68F7
:1003300013600C37BD465DF8047B704744380240BB
:1003400080B483B000AF5A4B1B687B607B6843F47A
:1003500080337B60564A7B681360564B3B6009E0F4
:10036000534B1B6803F40033002B00D005E03B68BF
:10037000013B3B603B68002BF2DC3B68002B40F309
:1003800091804D4B1B687B607B6843F080537B60A2
:10039000494A7B681360494B1B687B607B6823F488
:1003A00040437B607B6843F440437B60434A7B6807
:1003B0001360434B1B687B607B6823F0F0037B601A
:1003C0003F4A7B6813603E4B1B687B607B6823F46D
:1003D00060437B607B6843F400437B60384A7B6802
:1003E0001360374B1B687B607B6823F4E0537B60B2
:1003F0007B6843F4A0537B60314A7B681360314BC8
:100400007B60314A7B681360294B1B687B607B688B
:1004100043F080737B60264A7B68136000BF244BE7
:100420001B6803F00073002BF9D0244B1B687B6022
:100430007B6843F480337B60204A7B68136000BF95
:10044000224B1B6803F48033002BF9D01B4B1B6835
:100450007B607B6843F400337B60184A7B681360E1
:1004600000BF1A4B1B6803F40033002BF9D040F295
:1004700005637B60164A7B681360114B1B687B60C9
:100480007B6823F003037B607B6843F002037B609F
:100490000B4A7B68136000BF094B1B6803F00C0319
:1004A000082BF9D10C37BD465DF8047B704700BFBF
:1004B00000380240148219004038024000700040A9
:1004C00008380240195440070438024004700040C4
:1004D000003C024080B500AFFFF7DAFEFFF7EEFE0A
:1004E000FFF7FCFEFFF700FFFFF712FF80BD00BF24
:1004F00080B500AFFFF790FEFFF722FFFFF7EAFF9E
:1005000080BD00BF80B400AFBD465DF8047B70477E
:1005100080B500AFFFF7F6FF80BD00BF80B58EB09D
:1005200000AF78607B6803F0F0031B093B623B6A15
:10053000082B02D96FF015033FE1A24A3B6A52F83B
:100540002330FB617B6803F00F03BB617B6803F41E
:100550004023B3F5002F17D0B3F5402F17D0B3F5D4
:10056000802F02D000237B6214E07B6803F4807349
:10057000002B14BF01230023DBB27868194600F07A
:1005800035F901237B6205E002237B6202E003234D
:100590007B6200BFEFF3108372B67B817B89FB82A5
:1005A000FB691B687B63BB695B001A4603239340AE
:1005B000DB431A467B6B13407B63BB695B001A46C7
:1005C0007B6A93407A6B13437B63FB697A6B1A6097
:1005D00000233B637B6A032B0FD07B6803F440331B
:1005E000B3F5803F03D0B3F5003F03D005E001230E
:1005F0003B6302E002233B6300BFFB690C331B68D3
:100600007B63BB695B001A4603239340DB431A46B6
:100610007B6B13407B63BB695B001A463B6B93406B
:100620007A6B13437B63FB690C331A467B6B136055
:100630007B6A022B05D17B6803F470431B0B3B6381
:1006400001E000233B63BB69072B04D82023FB6236
:10065000BB69BB6204E02423FB62BB69083BBB624D
:10066000FA69FB6A13441B687B63BB6A9B001A46EA
:100670000F239340DB431A467B6B13407B63BB6ABB
:100680009B001A463B6B93407A6B13437B63FA697A
:10069000FB6A13441A467B6B13607B6A012B02D002
:1006A0007B6A022B18D17B6803F44063B3F5006FBB
:1006B0000BD0B3F5406F0BD0B3F5806F02D00023A1
:1006C0003B6308E001233B6305E002233B6302E058
:1006D00003233B6300BF01E000233B63FB69083356
:1006E0001B687B63BB695B001A4603239340DB43B3
:1006F0001A467B6B13407B63BB695B001A463B6BFE
:1007000093407A6B13437B63FB6908331A467B6B18
:100710001360FB6904331B687B63BB69012202FA27
:1007200003F33B637B6A012B02D07B6A022B09D166
:100730007B6803F40073002B04D07A6B3B6B13438C
:100740007B6304E03B6BDB437A6B13407B63FB69A9
:1007500004331A467B6B13607B6A012B25D07B68C0
:1007600003F48073002B20D0BB6903F00C02164BFE
:1007700013443B613B691B687B63BB6903F0030364
:100780009B00FB600F22FB6802FA03F3DB431A466F
:100790007B6B13407B633A6AFB6802FA03F37A6B64
:1007A00013437B633B697A6B1A60FB8A3B813B890D
:1007B00013F0010F00D162B6002318463837BD464A
:1007C00080BD00BFF49F01080838014080B582B0A9
:1007D00000AF78607B68DBB27B607868FFF79EFED5
:1007E000034618460837BD4680BD00BF80B487B0B9
:1007F00000AF78600B46FB707B6803F0F0031B09C9
:100800003B613B69082B1CD8104A3B6952F82330E6
:10081000FB607B6803F00F03BB60FB78002B05D007
:10082000BB68012202FA03F37B6105E0BB68103369
:100830001A46012393407B61FB6818331A467B6993
:1008400013601C37BD465DF8047B7047F49F0108B8
:1008500080B487B000AF78607B6803F0F0031B09B9
:100860007B617B69082B16D80E4A7B6952F82330CE
:100870003B617B6803F00F03FB603B6910331B682F
:10088000FA68012101FA02F21340002B14BF012380
:100890000023DBB200E0002318461C37BD465DF89C
:1008A000047B7047F49F010880B400AF064B01221F
:1008B0001A6000BF044B1B6803F48073002BF9D04F
:1008C000BD465DF8047B70472038014080B483B09A
:1008D00000AF0346FB7100BF064B1B6803F04003EB
:1008E000002BF9D0044AFB7913600C37BD465DF844
:1008F000047B7047001001400410014080B582B0B5
:1009000000AF20480021102200F066FC1E48FFF7CF
:1009100005FE1E48FFF702FE1D4B1B687B607B68CF
:1009200023F47D537B601A4A7B681360194B1B6864
:100930007B607B6823F4BB5323F01C037B60154A68
:100940007B681360144B1B687B607B6823F4E06357
:1009500023F001037B60104A7B6813600F4B40F269
:10096000D9221A600B4B1B687B607B6843F40053F1
:1009700043F00C037B60074A7B6813600837BD4671
:1009800080BD00BF44380240097C09000A7C090090
:10099000101001400C1001401410014008100140DB
:1009A00080B483B000AF786039607B689A6C3B6834
:1009B00013441B6818460C37BD465DF8047B70472E
:1009C00080B485B000AFF860B9607A60FB689A6C5B
:1009D000BB6813441A467B6813601437BD465DF844
:1009E000047B704780B584B000AF78600B467B8095
:1009F0007B687A889A8678680C21FFF7D1FFF860C7
:100A0000FB6823F4D073FB607B8803F4D073FA682F
:100A10001343FB6078680C21FA68FFF7D1FF786810
:100A20001421FFF7BDFFF860FB6823F00103FB60B2
:100A30007B8803F00103FA681343FB607868142194
:100A4000FA68FFF7BDFF1037BD4680BD80B584B0A2
:100A500000AF78600B467B80EFF3108372B6BB81EA
:100A6000BB89FB817B8878681946FFF7BBFFFB8950
:100A70007B817B8913F0010F00D162B61037BD4630
:100A800080BD00BF80B586B000AF78603960EFF3FD
:100A9000108372B67B817B89FB823B68002B17D069
:100AA00078680C21FFF77CFF386178681421FFF724
:100AB00077FFF8603B699BB203F4D0739AB2FB688E
:100AC0009BB203F001039BB213439AB23B681A80B6
:100AD00078680021FFF786FFFB8A3B813B8913F092
:100AE000010F00D162B61837BD4680BD80B588B011
:100AF00000AF78607B689B6A3B6138690C21FFF727
:100B00004FFF78613B695A6C3B69DB6B5B08B2FB5A
:100B1000F3F3FB60FB685B09FB61FB695B01FA684F
:100B2000D31A01335B08BB61FB69002B0ED17B69D3
:100B300043F400437B61FB681B09FB61FB691B01FC
:100B4000FA68D31A01335B08BB6103E07B6923F4C5
:100B500000437B61FB691B01BB60BA68BB6913433F
:100B6000BB6038690C217A69FFF72AFF38690821D0
:100B7000BA68FFF725FF7B6923F4B0537B613B69BB
:100B800093F83930012B04D17B6943F4C0637B6156
:100B900008E03B6993F83930022B03D17B6943F4B9
:100BA00080637B613B6993F83A30092B09D03B693C
:100BB00093F83A30082B08D13B6993F83930002B71
:100BC00003D07B6943F480537B6138690C217A69D7
:100BD000FFF7F6FE38691021FFF7E2FE78617B69C6
:100BE00023F440537B613B6993F83B30002B03D0E7
:100BF0007B6943F400537B61386910217A69FFF700
:100C0000DFFE38691421FFF7CBFE78617B6923F49E
:100C100040737B61386914217A69FFF7D1FE203770
:100C2000BD4680BD80B586B000AF78600B46FB70D6
:100C30007B689B6A7B617B699B6C0D4A934200D009
:100C400012E010233B610B4BFB6000BFFB78002BD5
:100C500005D0F86800213A6900F0BEFA04E0F868AF
:100C60003969002200F0B8FA1837BD4680BD00BFD0
:100C7000001001404438024080B584B000AF786075
:100C80007B689B6ABB6078680121FFF7CBFFBB687C
:100C9000DB6C1846FFF742FCBB681B6D1846FFF77C
:100CA0003DFCB8681021FFF77BFEF860FB6823F479
:100CB0007D53FB60BB6893F83B30002B03D0FB688F
:100CC00043F40053FB60B8681021FA68FFF778FE20
:100CD000B8680C21FFF764FEF860FB6823F4BE736C
:100CE000FB60B8680C21FA68FFF76AFEB868142147
:100CF000FFF756FEF860FB6823F4E06323F001037E
:100D0000FB60B8681421FA68FFF75AFE7868FFF7AD
:100D1000EDFEB8680C21FFF743FEF860FB6843F472
:100D2000005343F00C03FB60B8680C21FA68FFF72E
:100D300047FEBB6800229A86BB68012283F83820F0
:100D4000002318461037BD4680BD00BF80B584B073
:100D500000AF78607B689B6AFB60FB68002283F8C9
:100D60003820F8680021FFF78DFE78680021FFF732
:100D700059FFF8680C21FFF713FEB860BB6823F435
:100D8000005323F00C03BB60F8680C21BA68FFF72E
:100D900017FEFB68DB6C1846FFF718FDFB681B6D40
:100DA0001846FFF713FD1037BD4680BD80B584B0EF
:100DB00000AF78607B689B6AFB60FB6893F840300B
:100DC00018460949FA6801F0E7F8B860BB68002BDB
:100DD00005D1FB6893F84030184600F035FBBB683E
:100DE00018461037BD4680BD1D0E000880B584B082
:100DF00000AF78607B689B6AFB60FB6893F84030CB
:100E0000184600F0F9FAFB6893F8403018460021C4
:100E1000002201F0C1F81037BD4680BD80B588B012
:100E200000AFF860B9607A607B687B610123FB7674
:100E30000023FB613BE00023FB7678690021FFF78C
:100E4000AFFD03469AB27B69DA867B69DB8E03F0DD
:100E50002003002B0CD07B699B8E03F02003002B1A
:100E600006D07B69184603F013FE0123FB7609E0E8
:100E70007B69DB8E03F00E03002B03D0786904211D
:100E8000FFF78EFD7B69DB8E03F08003002B0BD018
:100E90007B699B8E03F08003002B05D07B6918468D
:100EA00003F09EFD0123FB76FB690133FB61FB69C7
:100EB000FF2B02DCFB7E002BBDD100231846203720
:100EC000BD4680BD80B487B000AFF860B9607A607D
:100ED00000237B616FF018037B6100BF7B691846BC
:100EE0001C37BD465DF8047B704700BF80B584B0F9
:100EF00000AF786039607B689B6AFB60F86804210A
:100F0000FFF74EFDB860FB68DB8E1B041A46BB681A
:100F10001A433B681A60FB680022DA86BB68DBB2C2
:100F200018461037BD4680BD80B586B000AF7860EA
:100F30000B46FB707B689B6A3B61EFF3108372B6D4
:100F4000BB81BB89FB813B699B8EFB82FB78002BBD
:100F500004D0FB8A43F02003FB8205E0FB8A23F4E4
:100F6000907323F00103FB82FB8A38691946FFF76F
:100F70006DFDFB897B817B8913F0010F00D162B687
:100F80001837BD4680BD00BF80B584B000AF786023
:100F90007B689B6AFB60F8680021FFF701FD034650
:100FA00003F02003002B14BF01230023DBB21846FB
:100FB0001037BD4680BD00BF80B584B000AF7860FB
:100FC00039607B689B6AFB603B68F86804211A46BD
:100FD000FFF7F6FC1037BD4680BD00BF80B586B078
:100FE00000AF78600B46FB707B689B6A7B61EFF318
:100FF000108372B6FB81FB897B82FB78002B0DD0BE
:101000007B699B8E43F080033B823B8A786919465B
:10101000FFF71CFD786803F0E3FC08E07B699B8E1A
:1010200023F080039BB278691946FFF70FFD7B8A96
:10103000BB81BB8913F0010F00D162B61837BD46E2
:1010400080BD00BF80B584B000AF78607B689B6ACC
:10105000FB60F8680021FFF7A3FC034603F0800360
:10106000002B14BF01230023DBB218461037BD4606
:1010700080BD00BF80B485B000AF78607B68013B65
:10108000FB60FB68002B08DBFB68072B05DC0E4AC6
:10109000FB6852F82330002B01D100230DE00A4AEF
:1010A000FB6852F8233093F83830002B01D100232D
:1010B00003E0054AFB6852F8233018461437BD4652
:1010C0005DF8047B704700BF48A0010880B582B07E
:1010D00000AF00237B6010E00D4A7B6852F823309C
:1010E000002B07D00A4A7B6852F8233018460021AB
:1010F000FFF7C8FC7B6801337B607B68072BEBD96B
:10110000044B1846FFF7B8FD0837BD4680BD00BF49
:1011100048A001080000002080B586B000AF002381
:101120003B61174B1748194603F0BAFB3B4618467C
:10113000154905F0D3FA00237B611AE0134A7B6955
:1011400052F82330002B00D110E03B695A1C3A6161
:10115000DBB23033DBB27B720C4A7B6952F823304E
:101160001A463B461846114603F09AFB7B69013349
:101170007B617B69072BE1D91837BD4680BD00BF75
:101180000000002068A0010878A0010848A001081C
:1011900080B584B000AF78600E4BFB6007F10A03A6
:1011A000F8681946FFF76EFC7B680A2B02D10D2008
:1011B000FFF78CFB7B68DBB21846FFF787FB7B8968
:1011C000F8681946FFF742FC7B6818461037BD46A1
:1011D00080BD00BF0000002080B489B000AFF8607F
:1011E000B9607A60EFF3108372B6FB82FB8AFB83EF
:1011F000FB681B68BB61BB68DB43BA691340BB611A
:10120000BA697B681343BB61FB68BA691A60FB8BE0
:10121000BB82BB8A13F0010F00D162B62437BD46F2
:101220005DF8047B704700BFEFF305801EF0040FEC
:1012300002D0EFF309818D466A4602F12002EFF3F6
:1012400010832DE9FC4F69466C4624F00702954651
:1012500000F0A8F92146884209D000F12C01B1E83C
:10126000F00F016821E9F00FB0E8FC4F01E0B1E8B0
:10127000FC4F1EF0040F0CBF81F3088881F309882E
:1012800083F310887047000080B487B000AFF86027
:10129000B9607A603B60FB680F2B15DDFB68103B83
:1012A0007B617B695B1140339B001A463B681344AA
:1012B00003F1E022BB681A607B6903F01F0301227F
:1012C0009A407B681A6027E0BB68174A1A60FB687F
:1012D000042B04D17B684FF480321A601CE0FB6859
:1012E000052B04D17B684FF400321A6014E0FB68D0
:1012F000062B04D17B684FF480221A600CE0FB6857
:101300000F2B06D1BB68094A1A607B6801221A605C
:1013100002E04FF0FF3300E0002318461C37BD46C3
:101320005DF8047B704700BF24ED00E010E000E0B2
:1013300080B584B000AF00237B600CE07B685B115C
:1013400060339B0003F1E0231A464FF0FF33136034
:101350007B6820337B607B685A2BEFDD1C4B1D4A7A
:101360001A601D4B4FF080321A601C4B4FF08032D8
:101370001A601B4B4FF080321A601A4B1B68013306
:10138000DB00BB60184BFB6006E0FB684FF080326F
:101390001A60FB680433FB60BB685A1EBA60002BFE
:1013A000F3D1124B00221A600B201149002200F0E9
:1013B000F3FD03200F49002200F0EEFDF0233B6017
:1013C0003B6883F3118862B61037BD4680BD00BF0D
:1013D00008ED00E00000000818ED00E01CED00E062
:1013E00020ED00E004E000E000E400E0400900201F
:1013F00031150008AD14000880B586B000AF7860E4
:1014000007F1100207F10C03786811461A46802391
:10141000FFF73AFF0346002B13D17B680F2B04DD47
:101420003B691A46FB6813600BE03B691B687B61F4
:10143000FB68DB437A6913407B613B691A467B6931
:1014400013601837BD4680BD80B586B000AF7860A8
:1014500007F1100207F10C03786811461A460023C1
:10146000FFF712FF0346002B12D17B680F2B04DD20
:101470003B691A46FB6813600AE03B691B687B61A5
:10148000FB687A6913437B613B691A467B69136089
:101490001837BD4680BD00BF80B483B000AF786010
:1014A0000C37BD465DF8047B704700BF80B588B03F
:1014B00000AFF860B9607A60BB68FB61FB694433D8
:1014C0001B68023BBB61BB69134A934211D3BB69E2
:1014D000124A93420DD2BB691B88FB82FB8AB3F58B
:1014E0005F4F06D1F868B9687A6800F021F80346C2
:1014F0000EE0EFF3108372B6BB82094B1B6800202D
:101500000849094A05F094F90848942100F0DAF9ED
:1015100018462037BD4680BD0000000803BE010804
:101520002CED00E084A00108BCA00108A4A00108E3
:1015300080B586B000AFF860B9607A60BB687B6147
:101540007B69DB6A3B613B69012B0DD0012B02D328
:10155000022B10D01EE07B6930331B681846796976
:101560004C2205F029F915E07B6930331B681A46D7
:101570000B4B1A600EE07B6930331B6818467969A3
:101580004C2205F019F97B6934331B681A46044B69
:101590001A6000BF002318461837BD4680BD00BF43
:1015A0004009002080B584B000AF78603960042025
:1015B00000F072FA0D4B1B68FB600C4A3B6813602D
:1015C0007868FFF769FF7868396800F021FD074BFC
:1015D0001B683B60054AFB681360042000F06EFA4C
:1015E0003B6818461037BD4680BD00BF400900204B
:1015F00080B483B000AF6B467B607B6818460C37C5
:10160000BD465DF8047B7047F0B58DB008AF7860DB
:1016100039607B6823F01F03FB602BE0FB68BB6035
:10162000BB68D3F800E0BB6804331E68BB680833AE
:101630001D68BB680C331C68BB6810331868BB6836
:1016400014331968BB6818331A68BB681C331B68ED
:10165000CDF800E00196029503940490059106925E
:10166000079300200749084AFB6805F0E1F8FB688A
:101670002033FB60FA683B689A42CFD31437BD46EB
:10168000F0BD00BFCCA001085CA20108F0B58BB092
:1016900008AF394B1B687B607B68002B04D137484F
:1016A00000F05CF9354B7B607B682C33D3F800E0AD
:1016B0007B6830331E687B6834331D687B68383341
:1016C0001C687B68083318687B680C3319687B6872
:1016D00010331A687B6814331B68009601950294D6
:1016E000039004910592069300202549254A7346EC
:1016F00005F09EF87B681833D3F800E07B681C3354
:101700001E687B6820331D687B6824331C687B68F7
:101710003C3318687B6819687B6840331A687B68BB
:1017200044331B680096019502940390049105923E
:10173000069300201449134A734605F079F87B6834
:1017400048331C687B6804331A68EFF314833B60EA
:101750003B680092019300200C490A4A234605F099
:1017600067F87B6828331B6800200949054A05F0A3
:101770005FF80C37BD46F0BD40090020B4060020DC
:1017800000A101087CA2010834A1010868A1010898
:1017900094A1010880B584B000AF00F0B1F8034611
:1017A000002B02D0264B1B6801E0264B1B687B6098
:1017B000FFF71EFF3860FFF769FF7B689B89002BEE
:1017C00007D1214B1B68043BFB604FF48063BB6077
:1017D00005E07B681B6BFB607B689B6ABB6000203D
:1017E0001A491B4A3B6805F023F800201949184A9A
:1017F000FB6805F01DF800201749154ABB6805F085
:1018000017F83A68FB689A4205D8FA68BB68D21A9A
:101810003B689A420CD3002010490D4A05F008F8A5
:10182000FA68BB68D31A1846F968FFF7EDFE03E0C3
:101830003868F968FFF7E8FE1037BD4680BD00BF85
:10184000080A002054090020F09F0108ACA10108FB
:101850006CA20108C4A10108DCA10108F4A10108DF
:1018600080B584B000AF786003F06EF9124B1B684E
:10187000002B0CD100F044F80346002B02D00F4B94
:101880001B6801E00E4B1B681B68002B10D1EFF3A7
:10189000108372B6FB81072000F0FEF8FA2000F0FA
:1018A0003FF8072000F00AF9FA2000F039F8F2E7D3
:1018B000786800F0ADFE00BF40090020080A002053
:1018C0005409002080B584B002AF786039600620EA
:1018D00000F0E2F803F038F93B6800930020064975
:1018E000064A7B6804F0A4FFFFF754FF03F02CF9CD
:1018F0000120FFF7B5FF00BF30A201088CA201084C
:1019000080B400AF054B1B68002B14BF01230023DC
:10191000DBB21846BD465DF8047B704740090020E5
:1019200080B485B000AF78600023FB600DE0002339
:10193000BB6002E0BB680133BB60BB6844F24C1281
:101940009342F7D9FB680133FB60FA687B689A42DF
:10195000EDD31437BD465DF8047B704701464FF068
:10196000000000DF01F12C024FF00103136070470B
:1019700080B500AF00F082F800F0B4F880BD00BF81
:1019800080B500AF00F002F880BD00BF80B584B024
:1019900002AF00F029F90023009300200C490D4A02
:1019A00000230EF0B1F878607B68002B0ADA00F0B3
:1019B00071F903461B68032007497A6804F038FF71
:1019C0007B6800E0002318460837BD4680BD00BF95
:1019D00098A20108A0A20108A8A2010880B582B0BF
:1019E00000AF78607B6803F00103002B03D0084848
:1019F0000021FEF7FBFE7B6803F00203002B03D0FF
:101A000004480021FEF7F2FE0837BD4680BD00BF46
:101A1000660804006708040080B582B000AF7860F3
:101A20007B6803F00103002B03D008480121FEF777
:101A3000DDFE7B6803F00203002B03D00448012184
:101A4000FEF7D4FE0837BD4680BD00BF660804001F
:101A50006708040080B582B000AF78607B681B091E
:101A600003F00F031846FFF7B9FF7B6803F00F037D
:101A70001846FFF7D1FF0837BD4680BD80B500AFDF
:101A80000348FEF74BFD0348FEF748FD80BD00BF4D
:101A9000660804006708040080B582B000AF786073
:101AA000054A7B6832F81330DBB21846FFF7D2FFE5
:101AB0000837BD4680BD00BFE0A2010880B582B0F6
:101AC00000AF7860064A7B6832F813301B0A9BB27D
:101AD000DBB21846FFF7BEFF0837BD4680BD00BF2A
:101AE000E0A2010880B584B000AF0023FB6009E0EC
:101AF0001E4AFB6852F823301846FEF70FFDFB68BC
:101B00000133FB60FB68252BF2D905F013FA42F68E
:101B1000D413BB600120B96805F08AFA0220B968C5
:101B200005F086FA124BBB600220B96805F05CFA3A
:101B3000092005F0A3FA00237B6002E07B680133F3
:101B40007B607B6842F20F729342F7DD0A2005F05A
:101B500095FA6B2005F092FA064805F08FFA40F2EC
:101B6000AB2005F023FA1037BD4680BDF0A2010876
:101B7000727422020C62040080B584B000AF7860F9
:101B800039607B68FB60FB6893F834301A46074B7A
:101B900053F822301846FEF75BFE03461A463B68B0
:101BA0001A70002318461037BD4680BD9CA301085B
:101BB00080B584B000AF78600B46FB707B68FB603B
:101BC000FB6893F834301A46064B53F82220FB7812
:101BD00010461946FEF70AFE002318461037BD4688
:101BE00080BD00BF9CA3010880B582B000AF002378
:101BF0003B6000237B603EE023497A681346DB00AC
:101C00009B1ADB000B4401221A701F497A681346A5
:101C1000DB009B1ADB000B4430331C4A1A607B68E4
:101C2000D8B219497A681346DB009B1ADB000B44D3
:101C3000303302461A717A681346DB009B1ADB00C8
:101C4000114A13441846396803F0DCF9104A7B68DE
:101C500052F8233018460021FEF7C8FD0C4A7B6875
:101C600052F823301846FEF759FC3B6801333B60BD
:101C70007B6801337B607B68012BBDDD0023184648
:101C80000837BD4680BD00BF0007002088A30108BB
:101C90009CA3010880B582B000AFFFF731FE034678
:101CA000002B0CD1084B1B687B607B68002B06D097
:101CB0007B689B7E032B02D17B686C3300E0034B77
:101CC00018460837BD4680BD540900207007002023
:101CD00080B586B000AF7A4B01221A70794B002292
:101CE0001A60784B00225A60774B00221A60764BBC
:101CF00000225A60754B00221A60744B00225A6011
:101D0000734B00221A60724B00225A60714B002202
:101D10001A60704B00225A606F4B00221A606E4BA3
:101D200000225A606D4B00221A606C4B00225A60F0
:101D30006B4B00221A606A4B00225A60694B0022EA
:101D40001A8000237B610EE0674A7B69002142F81C
:101D50003310654A7B69DB0013444FF6FF729A80AB
:101D60007B6901337B617B690F2BEDDD5D4B1B884C
:101D70009BB29BB203F00F033B615B4A3B695B493B
:101D800042F83310574B1B8899B2574A3B69DB0026
:101D900013440A469A8055480021D02204F082FC60
:101DA000504B1B889AB2514B9A81504B03229A7622
:101DB0004E4B4F4A1A614D4B4D4A5A614B4B0622CE
:101DC0009A834C4B4C4A1A604A4B00225A60474B4C
:101DD000484AC3F8CC203B4BFB604448F96803F009
:101DE000A7FC464B414A1A60404805F0D9F9344BEC
:101DF00002221A7007F108023B1D1046194605F031
:101E00004DF8BA687B681046194604F063FD2C4B08
:101E100003221A703A4B002B01D000F0D3FC394B4F
:101E2000002B01D001F0F6FF374B002B01D011F051
:101E30008DFF364B002B01D0AFF30080344B002BCD
:101E400001D001F0C3FC334B002B01D014F0ECF8AF
:101E5000314B002B01D012F045FC0BF0ABFF05F02D
:101E600087F9174B04221A7011F0EEFB1F4B9B8B66
:101E7000DBB21E48194600F0DFFB1C4800F02AFCCC
:101E80001A4800F015FC194B9B6801221A700220B9
:101E900002F066FE0A4B05221A7000F075F800F099
:101EA00035F90346002B08D004F024FD0346002B2F
:101EB00003D100F025F904F027FD05F019F8EEE74D
:101EC000FE09002054090020F40900204C090020DC
:101ED0006C0900205C0900204409002064090020EE
:101EE000000A0020FC09002074090020740700206B
:101EF000D11C000844080020ECA30108080A0020B7
:101F0000C5270008153E00084D3D010800000000EF
:101F1000CD37000829600108E546010880B584B086
:101F200002AFFFF72DFD00230093054864214FF415
:101F30000062044B00F068F978600837BD4680BD48
:101F4000F8A30108E975000880B582B000AF786099
:101F50003960FFF7E3FF002318460837BD4680BD10
:101F600080B584B002AF002300930548F0214FF400
:101F70000062044B00F080F978600837BD4680BDF0
:101F800000A40108491F000880B500AFFFF7E8FF73
:101F90000023184680BD00BF80B588B000AFF86050
:101FA000B9607A606FF01503FB61FB686A2B25D876
:101FB000FB68BB61EFF3108372B6BB82BB8AFB8206
:101FC000BB68002B06D1F868FFF716FA0E4BBB6012
:101FD00000237B600D49BB69BA6841F833200B4A86
:101FE000BB69DB0013447A685A60FB8A7B827B8A78
:101FF00013F0010F00D162B60023FB61FB691846A4
:102000002037BD4680BD00BF792000080C0A0020A3
:1020100080B586B000AF78603960134B7B610023D8
:102020003B617B68FB607B686A2B10D80F4AFB68BA
:1020300052F83330002B0AD00C4AFB6852F8333088
:102040007B610A4AFB68DB0013445B683B617B6988
:10205000786839683A699847054B1B68054A1360E8
:102060001837BD4680BD00BF792000080C0A00204B
:1020700054090020080A002080B586B000AFF8603F
:10208000B9607A60EFF3108372B6FB820148412198
:10209000FFF718FC0CA4010880B584B000AF16E06F
:1020A000EFF3108372B6FB80FB88FB810B4803F0D3
:1020B000F5FAB860FB89BB80BB8813F0010F00D133
:1020C00062B6BB68002B02D0B86804F025FC034B55
:1020D0001B68002BE4D11037BD4680BD000A0020EC
:1020E00080B400AF054B1B68002B14BF01230023F5
:1020F000DBB21846BD465DF8047B7047000A00203D
:1021000080B500AFFFF7C8FF80BD00BF80B500AF4E
:10211000FFF7E6FF0346002B01D0012300E0002378
:10212000DBB2184680BD00BF80B58AB002AFF86050
:102130007A603B600B46FB72D02004F00BFCB86168
:10214000BB69002B02D16FF00B0355E0FB7AB86935
:10215000194600F071FAF861FB69002B00DA45E0DE
:10216000B86900F017FBF861FB69002B00DA3DE06D
:102170003A68FB7AB86911461A4604F099FFF8618B
:10218000FB69002B00DA31E0FB7A0093B8697968CB
:102190001B4ABB6A00F0C0F9F861FB69002B00DA4A
:1021A00024E0B869F968FA6A00F0DEF9B86900F06D
:1021B0007FFAF861FB69002B00DA17E0BB699B89A5
:1021C000FB82B86900F0E0F9F861FB69002B0ADADC
:1021D000FFF760FD03461B685B42FB61B869094974
:1021E00003F0CAFA02E0B7F9163005E0FB7AB869E5
:1021F000194600F023FBFB6918462037BD4680BD19
:10220000BD2500086409002080B586B002AFF860E3
:10221000B9607A603B603B680093BB690193F868E2
:102220000021BA687B68FFF77FFF03461846103726
:10223000BD4680BD80B588B002AFF860B9607A60F5
:102240003B603B6A0093F868B9687A683B68FFF7BF
:10225000DBFF78617B69002B08DAFFF71BFD024684
:102260007B695B4213604FF0FF337B617B691846EB
:102270001837BD4680BD00BF80B586B002AFF8609C
:10228000B9607A603B603B680093BB690193F86872
:102290000221BA687B68FFF747FF034618461037EC
:1022A000BD4680BD80B586B000AF786000F0FAFA18
:1022B00000233B6133E01F4B1B889BB29BB2013371
:1022C0009BB29BB29BB21B4A19461180FB82B7F9A5
:1022D0001630002B04DC174B01221A800123FB82ED
:1022E000FB8A03F00F03FB60134AFB6852F833309C
:1022F000002B11D11049FB687A6841F833200E4A4F
:10230000FB68DB001344FA8A9A807B68FA8A9A8118
:1023100000F0E6FA002309E03B6901333B613B69C9
:102320000F2BC8DD00F0DCFA4FF0FF3318461837EA
:10233000BD4680BDFC0900207409002080B586B030
:1023400000AFF860B9607A603B60F868FFF7AAFFF9
:1023500078617B69002B3BD1BB68DAB2FB681A76E7
:10236000BB68DAB2FB685A76FB687A681A613A6829
:10237000FB685A6197F8203003F0030387F8203098
:10238000FB689B8B23F003039AB2FB689A83FB687C
:102390009A8B97F820309BB213439AB2FB689A83CA
:1023A000FB683833032000211A4600F0EBFAFB6883
:1023B00000229A76F86804F0F3FE00F073FAF868E9
:1023C000064903F0B5F9FB6804229A7600F088FA12
:1023D0007B6918461837BD4680BD00BF64090020E0
:1023E00080B58AB000AF786039604A4B7B6178690C
:1023F00004F0ACF9034601333B620023FB613B6808
:10240000002B26D01EE0FB699B003A6813441B6832
:10241000184604F09BF9034601333A6A13443B62C1
:102420007B689A6A3B6A9A4202D86FF05A036DE061
:10243000FB690133FB61FB69B3F5807F02DD6FF05F
:10244000060363E0FB699B003A6813441B68002B9A
:10245000D9D1FB6902339B003B6179683A693B6AD9
:1024600013440846194604F0C9FFF860FB68002BC6
:1024700002D16FF00B0349E0FA683B6913447B62B9
:10248000FB687A6A1A60786904F060F903460133E0
:10249000BB60786A796904F021F9BB687A6A1344F1
:1024A0007B620023BB6121E0BB6901339B00FA68BA
:1024B00013447A6A1A60BB699B003A6813441B682C
:1024C000184604F043F903460133BB60BB699B0027
:1024D0003A6813441B68786A194604F0FFF8BB6831
:1024E0007A6A13447B62BB690133BB61BA69FB69D9
:1024F0009A42D9DBFB6901339B00FA68134400223E
:102500001A607B68FA68C3F8CC2000231846283785
:10251000BD4680BD24A4010880B586B002AFF86036
:10252000B9607A603B603B7E0093F868B9687A686E
:102530003B68FFF703FF034618461037BD4680BDD2
:1025400080B586B002AFF860B9607A603B60012365
:102550000093F868B9687A683B68FFF7EFFE0346B6
:1025600018461037BD4680BD80B584B000AFF86016
:10257000B9607A60F8687968FFF732FF0346184659
:102580001037BD4680BD00BF80B584B000AF786015
:10259000EFF3108372B6BB81BB89FB81786804F0CE
:1025A0005FFFFB897B817B8913F0010F00D162B64D
:1025B000002318461037BD4680BD00BF80B584B0EB
:1025C00000AF124B1B68BB600123FB6009E0FB6896
:1025D0000133FB60FB68B3F5807F02DD012000F072
:1025E00017F8BB68D3F8CC20FB689B0013441B682A
:1025F000002BECD1BB685B69BA68D2F8CC20F868D4
:10260000114698477860786800F002F85409002075
:1026100080B584B000AF7860064B1B68FB607B68B8
:10262000DBB27B60F8687968002200F075FD78689D
:1026300004F084FD5409002080B584B000AF7860B8
:102640000B46FB704FF4F27004F084F9F860FB68FD
:10265000002B02D16FF00B0326E07B68FA689A60CA
:10266000F86800F0BBFDB860BB68002B07DAF868BB
:1026700004F052F97B6800229A60BB6814E0FB68A2
:102680000C3318460021012203F0A0F8FB68043344
:1026900018460021002203F099F8FB68043318461D
:1026A000002103F005F9002318461037BD4680BD10
:1026B00080B485B000AF78607B689B68FB60FB6886
:1026C00001225A70002318461437BD465DF8047B7A
:1026D000704700BF80B584B000AF78607B689B68AE
:1026E000FB60FB68343318460BF0ACFB1048032149
:1026F0000CF034F8B860BB68002B0CD1002001212D
:102700000BF030FE002002210BF02CFE786800F068
:10271000F1FD034607E0BB68002B02DDB8680BF053
:10272000FFFD6FF0160318461037BD4680BD00BF91
:1027300030A4010880B586B000AF7860144B1B68E8
:102740003B613B699B683833FB607B689B6838332F
:10275000BB6000237B6115E07B691B01FA681344B1
:102760009B68002B0BD07B691B01FA68D1187B6931
:102770001B01BA681344084619460BF08DFB7B69B0
:1027800001337B617B69072BE6DD1837BD4680BDD1
:102790005409002080B584B000AF78607B689B68E6
:1027A000FB60FB68343318460BF04CFB7868FFF78E
:1027B000C1FF786800F09EFD034618461037BD46FD
:1027C00080BD00BF80B483B000AF00237B600DE00C
:1027D0000A4A7B680A4942F83310084A7B68DB00E2
:1027E000134400225A607B6801337B607B686A2B4C
:1027F000EEDD0C37BD465DF8047B70470C0A002007
:102800007920000880B485B000AF0346FB80FB88C8
:1028100003F00F03FB60084AFB68002142F8331005
:10282000054AFB68DB0013444FF6FF729A801437A9
:10283000BD465DF8047B70477409002080B584B004
:1028400000AF78600B46FB700023FB607B68002BB9
:1028500021D0134B002B05D07B689B891BB21846F7
:10286000AFF300807B689B89002B05D07B689B8938
:102870001BB21846FFF7C6FF7B68DB6A002B04D04B
:10288000FB787868194604F0E7FC786800F014FDDE
:10289000786800F0EBFDFB6818461037BD4680BD38
:1028A0000000000080B582B000AF0C4B1B687B605D
:1028B0007B68002B0DD0FFF723F80346002B08D1CF
:1028C0007B68DB8B9BB29BB201339BB29AB27B6875
:1028D000DA83002318460837BD4680BD540900201E
:1028E00080B584B000AF254B1B68FB60FB68002BF4
:1028F0003FD0FFF705F80346002B3AD1EFF31083E2
:1029000072B63B813B897B81FB68DB8B1BB2002B62
:1029100008DDFB68DB8B9BB29BB2013B9BB29AB29A
:10292000FB68DA83FB68DB8B1BB2002B1ADCFB68CD
:102930000022DA83124B1B68002B01D004F052FCFA
:10294000FB689B8B03F06003202B0BD1FB681B6A99
:10295000002B07D1094B1A68FB689A4202D0FB682A
:1029600014221A627B89FB80FB8813F0010F00D1CF
:1029700062B6002318461037BD4680BD54090020BA
:10298000F409002080B58AB000AFF860B9607A60C1
:10299000244B1B683B6200237B62FFF783FF3B6A8B
:1029A0009B6BFB617B68002B02D07B68FA691A6025
:1029B000BB68002B2FD0EFF3108372B63B833B8BA9
:1029C0007B83FB68022B0BD0032B12D0012B15D17C
:1029D0003B6A9A6BBB681B681A433B6A9A6311E0B7
:1029E0003B6A9A6BBB681B68DB431A403B6A9A637D
:1029F00008E0BB681A683B6A9A6303E06FF015034E
:102A00007B6200BF7B8BFB82FB8A13F0010F00D13E
:102A100062B600F027F8FFF763FF7B6A1846283795
:102A2000BD4680BD5409002080B586B000AFF86077
:102A3000B9607A60F868B9687A68FFF7A3FF7861CF
:102A40007B69002B08DAFFF725F902467B695B42B8
:102A500013604FF0FF337B617B6918461837BD4622
:102A600080BD00BF90B585B000AF1F4B1B68FB60F9
:102A7000FFF718FFFB689B6BDC43F86800F03EFF34
:102A8000034623403B603B68002B03D1FFF728FF40
:102A9000002324E03B46184600F0A6F8B860BB6867
:102AA000B3F1FF3F15D03B461846B96802F056FF18
:102AB000F868B96800F01AF878607B68002B08D0D5
:102AC0007B680433F868194600F09EF9786800F0D6
:102AD0004DF83B68002BDDD1FFF702FF01231846BC
:102AE0001437BD4690BD00BF5409002080B588B0A2
:102AF00000AF786039607B689B687B61EFF310837F
:102B000072B63B823B8A7B820023BB617B695B6A36
:102B1000FB6104E0FB69BB61FB691B68FB61FB694E
:102B2000002B05D0FB691B791A463B689A42F1D10C
:102B3000FB69002B0ED0BB69002B06D07B692433C8
:102B4000B869194602F0CAFD04E07B6924331846CF
:102B500002F0A4FD7B8AFB81FB8913F0010F00D1F9
:102B600062B6FB6918462037BD4680BD80B586B089
:102B700000AF78607B681B7B002B11D1EFF31083D3
:102B800072B6BB82BB8AFB827868154902F02EFDC3
:102B9000FB8A7B827B8A13F0010F00D162B61CE0B6
:102BA0007B681B7B022B11D1EFF3108372B63B8243
:102BB0003B8AFB8278680B4902F018FDFB8AFB8197
:102BC000FB8913F0010F00D162B606E07B681B7B26
:102BD000012B02D1786800F049FC1837BD4680BD52
:102BE000840D00207C0D002080B584B000AF78609B
:102BF0000023FB600BE07868F96802F0CFFE034623
:102C0000002B01D0FB6807E0FB680133FB60FB6829
:102C10001F2BF0DD4FF0FF3318461037BD4680BD47
:102C200080B588B000AF786039600023FB61FFF7A2
:102C300039FE7B689A683B681B781046194600F09D
:102C40008BFEB861BB69002B2FD0BB695B68002B82
:102C50002BD000F0A5FE78617B69002B03D16FF0CB
:102C60000B03FB6121E0BB695A687B695A60BB6951
:102C70009A687B699A607B690C3318463968082228
:102C800003F09AFDEFF3108372B63B823B8A7B829E
:102C90007B6840337869194602F0A8FC7B8AFB8187
:102CA000FB8913F0010F00D162B6FFF719FEFB6933
:102CB00018462037BD4680BD80B584B000AFFEF712
:102CC0001FFE0346002B0BD0184802F0E7FCF8600B
:102CD000FB68002B25D1164802F0E0FCF86020E0EC
:102CE000EFF3108372B63B813B897B810F4802F082
:102CF000D5FCF8607B89FB80FB8813F0010F00D1C5
:102D000062B6FB68002B0CD1FB68002B03D11020AE
:102D100003F010FEF860FB68002B02D0FB68012274
:102D20001A73FB6818461037BD4680BD840D00201D
:102D30007C0D002080B487B000AF7860396000233C
:102D40007B61EFF3108372B63B823B8A7B827B68A8
:102D50005B6A7B6102E07B691B687B617B69002B9E
:102D600005D07B691B791A463B689A42F3D17B8A6E
:102D7000FB81FB8913F0010F00D162B67B69184615
:102D80001C37BD465DF8047B704700BF80B586B038
:102D900000AF786039607B689B687B613B681B781B
:102DA00078691946FFF7C6FF38613B69002B07D0E9
:102DB0003B69043318463968082203F0FDFC1FE024
:102DC000FFF77AFF38613B69002B19D03B69043368
:102DD00018463968082203F0EFFCEFF3108372B64F
:102DE000BB81BB89FB817B6924333869194602F0BA
:102DF000FDFBFB897B817B8913F0010F00D162B65B
:102E00001837BD4680BD00BF80B586B000AF786082
:102E1000396000237B617B6803F138023B681B78D3
:102E20001046194602F0BAFD0346002B37D0EFF3E7
:102E3000108372B63B823B8A7B827B689B7E062B2B
:102E400021D17B6803F13C023B681B781046194690
:102E500002F0A4FD0346002B15D07B6850331846C2
:102E60003968082203F0A8FC7B680022DA637868DE
:102E700004F0F6FA7B8AFB81FB8913F0010F00D185
:102E800062B600BF46E07B8ABB81BB8913F0010FAD
:102E900000D162B678683968FFF778FF3AE0786861
:102EA0003968FFF7BDFE7861EFF3108372B67B815E
:102EB0007B897B8278681A4904F0EEF97B689B7EF7
:102EC000062B0CD17B68503318463968082203F072
:102ED00073FC7B680022DA63786804F0C1FA7B8AAD
:102EE0003B813B8913F0010F00D162B67B689B7E6A
:102EF000052B03D17868042100F0E0FB7B689B7E02
:102F0000072B03D07B689B7E082B03D178680421B4
:102F100000F046FA7B6918461837BD4680BD00BFF1
:102F20005D2F000880B584B000AF03463960FB8098
:102F3000B7F90630184600F0CBFAF860FB68002BB2
:102F400002D16FF0020304E0F8683968FFF75CFF14
:102F5000034618461037BD4680BD00BF80B58CB013
:102F600000AF7860EFF3108372B6FB82FB8AFB85BB
:102F70007B689B8B03F48073002B07D0FB8DBB8297
:102F8000BB8A13F0010F00D162B676E07B68403354
:102F9000184602F083FBB862BB6A002B07D1FB8D99
:102FA0007B827B8A13F0010F00D162B665E07B68FB
:102FB0009B8B43F480739AB27B689A837B68483317
:102FC000B86A194602F012FB7B68DB6E7B627B6895
:102FD0009B6B3B62BB6A9A683B6A1A43BB6A1B7B6A
:102FE000194601238B401343FB617B68FA699A639E
:102FF000FB8D3B823B8A13F0010F00D162B6BB6AA6
:103000005B68BA6A127B1146BA6A0C3208461146EE
:1030100000229847EFF3108372B6FB81FB89FB8592
:103020007B689B8B23F480739AB27B689A837B685E
:103030007A6ADA667B689A6BFB695340BB617B688E
:103040009A6BBB691A40BB69D9433B6A0B401A4370
:103050007B689A637B684833B86A194602F0E6FADF
:10306000FB8DBB81BB8913F0010F00D162B6FFF766
:10307000F9FCB86A00F0D2FC74E73037BD4680BD79
:1030800080B584B000AF786039607B689B68FB6076
:10309000FB68002B24D07B689B8B03F00303012B80
:1030A00008D0FB689B68002B04D0FB689B683A68DB
:1030B00012021A60FB685B78012B11D1FB680022B9
:1030C0009A60FB680022DA7004E0FB68043318465B
:1030D00000F066FAFB689B889BB21BB2002BF4DB06
:1030E0001037BD4680BD00BF80B584B000AF7860AA
:1030F0007B689B68FB60FB68002B09D0FB685B78F2
:10310000012B05D17B689B68B833184603F00AFA97
:103110001037BD4680BD00BF80B584B000AFF860F9
:10312000B9601346FB71FB689B8B03F40073002BA3
:1031300000D019E0F86800F01BF8F868B968FFF7EC
:103140009FFFFB79002B02D1F868FFF7CDFFF868ED
:1031500000F0B2F8F86800F09FFCFB689B8B43F42A
:1031600000739AB2FB689A831037BD4680BD00BFDA
:1031700080B582B000AF7860786800F009F87868B0
:1031800000F072FA786800F0E7F80837BD4680BDB5
:1031900080B584B000AF7860EFF3108372B6BB8166
:1031A000BB89FB817B685B6A002B0CD07B685B6A08
:1031B000184600F0BBFC7B685B6A184600F010FD07
:1031C0007B6800225A62FB897B817B8913F0010FA7
:1031D00000D162B61037BD4680BD00BF80B586B055
:1031E00000AF78601E4B1B68BB6000237B6100232F
:1031F000FB60FFF757FBBB689B68002B28D0BB68C0
:103200009B681B6B002B23D0BB689B68DB6A3B6110
:1032100000237B613B69002B14D0386903F08AFBE3
:1032200078617B69002B05D100233B616FF00B03B4
:10323000FB6007E0BB689B681B6B786919463A69BD
:1032400003F0BAFA7B683A69DA627B687A691A63D2
:10325000FFF746FBFB6818461837BD4680BD00BF28
:103260005409002080B582B000AF7860786800F023
:103270003BFC786800F0D4F87B68343318460AF0D9
:10328000EFFD786802F022F9786800F0F5FC7868C4
:1032900000F04EF87B689B78002B07D07B681B788A
:1032A00043F00803DAB27B681A7002E0786800F035
:1032B000DDF80837BD4680BD80B584B000AF7860CA
:1032C0007B689B68FB60FB68002B10D0FB685B7819
:1032D000012B06D9FB685B78013BDAB2FB685A70B8
:1032E00002E0F868FFF7BEFF7B6800229A601037A3
:1032F000BD4680BD80B582B000AF78607B689B68BA
:10330000184602F0ADF8002001217A680BF070FF3A
:10331000012006217A680BF06BFF022006217A68F3
:103320000BF066FF002318460837BD4680BD00BF7E
:1033300080B582B000AF786006E07B68D3F8DC31FE
:10334000184679680CF054FB7B68D3F8DC31002B0D
:10335000F3D10837BD4680BD80B483B000AF78603C
:103360007B689B7E072B09D17B689A6D538A9BB241
:103370009BB2013B9BB29BB253820CE07B689B7E6D
:10338000082B08D17B689A6D138A9BB29BB2013BD4
:103390009BB29BB213820C37BD465DF8047B70472D
:1033A00080B586B000AF78603960EFF3108372B6F5
:1033B000FB81FB89FB827B689B7E072B03D07B68AC
:1033C0009B7E082B22D17B689B6D3B617B68002232
:1033D0009A657B689B7E072B09D13B695B8A9BB210
:1033E0009BB2013B9BB29AB23B695A8208E03B69AF
:1033F0001B8A9BB29BB2013B9BB29AB23B691A8279
:103400007B683A68DA66786804F02AF8FB8ABB8140
:10341000BB8913F0010F00D162B61837BD4680BDDD
:1034200080B584B000AF786013E07B681B69FB60F7
:10343000FB681A687B681A61FB680C33184600F059
:103440007BF8FB680A33184600F076F8F86800F05D
:103450000DF87B681B69002BE7D17B680C3318469D
:1034600000F06AF81037BD4680BD00BF80B584B05B
:1034700000AF7860FEF744FA0346002B04D103F056
:1034800039FA0346002B13D0EFF3108372B6BB81D9
:10349000BB89FB8178680A4902F0A8F800F012F8AD
:1034A000FB897B817B8913F0010F00D162B604E0B8
:1034B000786803F031FA03F027FA1037BD4680BD73
:1034C000000A002080B400AFBD465DF8047B704761
:1034D00080B487B000AF0346FB8000237B61B7F95F
:1034E0000630002B1FDBFB8803F00F033B61EFF37B
:1034F000108372B6BB81BB89FB810E4A3B69DB003E
:1035000013449B88B7F906201BB29A4204D1094A9A
:103510003B6952F833307B61FB897B817B8913F0F7
:10352000010F00D162B67B6918461C37BD465DF8B5
:10353000047B70477409002080B483B000AF7860CA
:103540007B68002B0AD07B681B889BB21BB2002BC8
:1035500002DB7B6801221A80002301E06FF0150373
:1035600018460C37BD465DF8047B704780B584B0C3
:1035700000AF78607868FFF7DFFFF860FB68002B2A
:1035800008DAFEF787FB0246FB685B4213604FF0E8
:10359000FF33FB60FB6818461037BD4680BD00BF97
:1035A00080B586B000AF786000237B616FF01503B3
:1035B0003B617B68002B36D0EFF3108372B6BB8182
:1035C000BB89FB817B681B889BB29BB29BB201339A
:1035D0009BB29AB27B681A807B681B889BB21BB235
:1035E000002B17DC124B1B687B6102E07B691B68B8
:1035F0007B617B69002B04D07B695A6B7B689A42A4
:10360000F4D17B69002B05D07B6900225A6378696D
:1036100003F026FF00233B61FB897B817B8913F04C
:10362000010F00D162B63B6918461837BD4680BD10
:103630004C09002080B584B000AF78607868FFF74F
:10364000AFFFF860FB68002B08DAFEF723FB0246A9
:10365000FB685B4213604FF0FF33FB60FB6818466A
:103660001037BD4680BD00BF80B487B000AF786022
:10367000EFF3108372B6FB81FB89FB827B689B7E34
:10368000052B0FD17B685B6B3B613B691B889BB251
:103690009BB29BB201339BB29AB23B691A807B68A2
:1036A00000225A63FB8ABB81BB8913F0010F00D152
:1036B00062B61C37BD465DF8047B704780B586B0A6
:1036C00000AF78603960EFF3108372B6FB81FB893D
:1036D000FB827B689B7E052B15D17B685B6B3B6116
:1036E0003B691B889BB29BB29BB201339BB29AB2DF
:1036F0003B691A807B6800225A637B683A68DA6605
:10370000786803F0ADFEFB8ABB81BB8913F0010F23
:1037100000D162B61837BD4680BD00BF80B586B007
:1037200000AF78600B467B8013467B707A88134627
:103730005B001344DB00184603F0FCF8F860FB68FC
:103740007B6100233B610DE07B697A781A757B69A8
:1037500003F118027A611846796801F047FF3B6966
:1037600001333B617A883B699A42EDDCFB6818467D
:103770001837BD4680BD00BF80B586B000AF786009
:103780000B467B8013467B707B881B01184603F039
:10379000D1F8F860FB687B6100233B610DE07B6939
:1037A0007A781A737B6903F110027A611846796896
:1037B00001F01CFF3B6901333B617A883B699A4207
:1037C000EDDCFB6818461837BD4680BD80B500AFFC
:1037D000204B00221A601F4B00225A601E4B002211
:1037E0001A601D4B00225A601C4B00221A601B4BB2
:1037F00000225A601A4B00221A60194B00225A60AC
:10380000184B00221A60174B00225A6012481021F0
:103810000022FFF783FF0246134B1A600F4808216E
:103820000222FFF77BFF0246104B1A6000F024F8DB
:103830000B4810210022FFF79FFF02460C4B1A6035
:10384000084808210222FFF797FF0246094B1A6039
:1038500080BD00BF640D00206C0D0020740D0020A1
:10386000840D00207C0D002050080020540800200A
:10387000580800205C08002080B582B000AF4FF4EB
:10388000A07003F057F802460C4B1A600B4B1B68F4
:103890007B6000233B600AE07B6803F114027A60DE
:1038A0001846074901F0A2FE3B6801333B603B68C4
:1038B0000F2BF1DD0837BD4680BD00BF4C0800204E
:1038C000640D002080B584B000AF78600A4B1B689F
:1038D000BB604FF0FF33FB607B68002B07D0B868FC
:1038E00000F00CF802467B681A600023FB60FB685E
:1038F00018461037BD4680BD5409002080B588B0F9
:1039000000AF78607B689B68BB610023FB60EFF3CE
:10391000108372B6BB82BB8AFB82BB695B6AFB61A8
:103920000BE0FB691B791A4607F10C031846114698
:1039300001F0F6FFFB691B68FB61FB69002BF0D10E
:10394000FB8A7B827B8A13F0010F00D162B6FB6891
:1039500018462037BD4680BD80B584B000AF786082
:1039600039600023FB607B68002B13D0FEF79AFFC1
:103970007B68DB69FB6002E0FB681B68FB60FB683F
:10398000002B05D0FB681B7C1A463B689A42F3D19A
:10399000FEF7A6FFFB6818461037BD4680BD00BF86
:1039A00080B584B000AFFDF7ABFF0346002B0BD012
:1039B000184801F073FEF860FB68002B25D116480B
:1039C00001F06CFEF86020E0EFF3108372B63B81EB
:1039D0003B897B810F4801F061FEF8607B89FB80A9
:1039E000FB8813F0010F00D162B6FB68002B0CD1ED
:1039F000FB68002B03D1182002F09CFFF860FB68E5
:103A0000002B02D0FB6801221A75FB68184610379C
:103A1000BD4680BD6C0D0020740D002080B586B0C1
:103A200000AF78607B681B7D002B11D1EFF3108312
:103A300072B6BB82BB8AFB827868154901F0D6FD5D
:103A4000FB8A7B827B8A13F0010F00D162B61CE0F7
:103A50007B681B7D022B11D1EFF3108372B63B8282
:103A60003B8AFB8278680B4901F0C0FDFB8AFB8131
:103A7000FB8913F0010F00D162B606E07B681B7D65
:103A8000012B02D17868FFF7F1FC1837BD4680BDE5
:103A90006C0D0020740D002080B584B000AF7860FC
:103AA00002E0F868FFF7BAFF7B684033184601F080
:103AB000F5FDF860FB68002BF3D102E0F868FFF732
:103AC000ADFF7B684833184601F0E8FDF860FB68FD
:103AD000002BF3D17B684FF0FF329A637B680022A2
:103AE000DA631037BD4680BD80B584B000AF786022
:103AF00002E0F86800F080F97B681C33184601F09A
:103B0000CDFDF860FB68002BF3D102E0B868FFF749
:103B10002DF87B682433184601F0C0FDB860BB68FF
:103B2000002BF3D11037BD4680BD00BF80B588B0F3
:103B300000AF78606FF015037B61EFF3108372B60E
:103B40003B823B8A7B827B68002B3BD07B681B7B64
:103B500003F00103002B35D00023BB611F4B1B6812
:103B6000FB6104E0FB69BB61FB691B68FB61FB69EE
:103B7000002B03D0FA697B689A42F3D1FB691B687A
:103B8000002B08D0FB691B68FA6912689168FA6912
:103B900092680A449A60BB69002B04D0B8690F4947
:103BA00001F09CFD02E00D4801F078FD7B680022E9
:103BB0001A607B681B7B23F00103DAB27B681A73FF
:103BC00000237B617B8AFB81FB8913F0010F00D10D
:103BD00062B67B6918462037BD4680BD980D00202F
:103BE00080B586B000AF7860EFF3108372B6BB8209
:103BF000BB8AFB827B681B7B03F00103002B02D096
:103C00007868FFF793FF7B681B7B03F00203002BB0
:103C10000AD0FB8A7B827B8A13F0010F00D162B647
:103C20007868FFF723FC1EE07B681B7B03F004032E
:103C3000002B11D178680E4901F0D8FC0D4B1B8880
:103C400001339AB20B4B1A80FB8A3B823B8A13F0FA
:103C5000010F00D162B606E0FB8AFB81FB8913F0FD
:103C6000010F00D162B6002318461837BD4680BD4B
:103C70008C0D0020940D002080B582B000AF7860DC
:103C80007B681B6B002B04D07B681B6B1846FFF70F
:103C9000EDFB7B680022DA627B6800221A6308373A
:103CA000BD4680BD80B582B000AF094801F0F6FC8A
:103CB00078607B68002B05D1FFF7DEFD044801F03A
:103CC000EDFC78607B6818460837BD4680BD00BFB4
:103CD000640D002080B588B000AFF860B9607A60EC
:103CE000FB70354B1B68BB61BB699B687B61FB68E4
:103CF0001F2B02D96FF015035AE07869F968FFF7B6
:103D00002BFEF8617B68002B18D0FB69002B0CD0D0
:103D1000FB695A687B681A60FB699A687B685A601D
:103D2000FB69DA687B689A6008E07B6800221A60A9
:103D30007B6800225A607B6800229A60BB68002B77
:103D400001D1002334E0BB681B683B613B69002B59
:103D50000CD1FB69002B2AD07B691C33F86919460A
:103D600001F064FCF86900F047F820E0FB69002BE3
:103D700012D1FFF797FFF861FB69002B02D16FF0BA
:103D80000B0315E0FB68DAB2FB691A747B691C331C
:103D9000F869194601F02AFCFB693A695A60BB6868
:103DA0005A68FB699A60BB689A68FB69DA6000230D
:103DB00018462037BD4680BD5409002080B586B026
:103DC00000AFF860B9607A60F868B9687A68002373
:103DD000FFF780FF78617B69002B08DAFDF75AFF57
:103DE00002467B695B4213604FF0FF3300E0002323
:103DF00018461837BD4680BD80B582B000AF7860E8
:103E00007868034901F0F2FB0837BD4680BD00BF6A
:103E1000640D002080B582B000AF124B7B60124B66
:103E200000221A60104B00225A60104B00221A60C8
:103E30000E4B00225A6000233B600AE07B6803F1CE
:103E400018027A601846084901F0D0FB3B6801333C
:103E50003B603B68032BF1DD054B04221A800837D9
:103E6000BD4680BD600800208C0D0020980D00200C
:103E7000940D002080B584B000AF78600B46FB70D5
:103E8000786811F093F9F860FB68002B04DAFB788E
:103E9000002B01D0FB6804E0FB6813F1040FEFD0A6
:103EA000FB6818461037BD4680BD00BF80B588B09E
:103EB00000AF78600B46FB700023FB6138E07A6846
:103EC000FB690A339B0013445B68BB61BB69002B31
:103ED0002BD0BB695A79BB691979FB780B40DBB2EF
:103EE0001343DAB2BB695A71BB695B79002B1CD0F2
:103EF000EFF3108372B6BB82BB8AFB82BB69DA68C0
:103F000007F10C031046194601F09AFCFB68002BE0
:103F100004DCBB69DB681846FFF742FBFB8A7B8247
:103F20007B8A13F0010F00D162B6FB690133FB619C
:103F3000FB69012BC3DD2037BD4680BD80B588B04D
:103F400000AFF860B9601346FB71FB68DB899BB278
:103F50001BB20133FB61FB685B8A1AB2FB699A42B0
:103F600001DC0023FB61FB681B8A9BB21AB2FB6970
:103F70009A420FD0FB685A69FB68DB899BB21BB27F
:103F80001344BA68D2B21A70FB699AB2FB68DA813C
:103F9000002339E0FB79002B32D0EFF3108372B6A7
:103FA000BB82BB8AFB82FB681B8A9BB21AB2FB698D
:103FB0009A4202D00023BB6115E0FB6801225A70CF
:103FC000FB685B6A5B6AF86801219847FB68063307
:103FD00018460121FFF74EFFB861FB685B6A5B6A18
:103FE000F86800219847FB8A7B827B8A13F0010FD7
:103FF00000D162B6BB69002B05DA6FF0030303E062
:104000006FF00A0300E0AEE718462037BD4680BDDA
:1040100080B582B000AF7860396000BF7B685B6AB2
:104020009B6A786898470346002BF7D07B685B6AE9
:104030001B6A7868396898470837BD4680BD00BF5D
:1040400080B586B000AFF860B9607A607B687B614C
:1040500016E0BB685A1CBA601B783B61FB68DB78D2
:10406000002B06D03B690A2B03D1F8680D21FFF71E
:10407000CFFFF8683969FFF7CBFF7B68013B7B60B6
:104080007B68002BE5D17B6918461837BD4680BD9B
:1040900080B588B000AF786039607B680C33184613
:1040A0000121FFF7E7FEF861FB69002B56DBEFF318
:1040B000108372B6FB81FB897B830023FB6115E0D3
:1040C0007B6801225A707B685B6A5B6A78680121B1
:1040D00098477B68063318460121FFF7CBFEF8614D
:1040E0007B685B6A5B6A786800219847FB69002BF4
:1040F00009DB7B68DB899AB27B681B8A9BB212B2B0
:104100001BB29A42DCD17B8BBB81BB8913F0010FC0
:1041100000D162B6144B1B687B61FB69002B18DB76
:104120000FE04FF47A7011F08BFA0F4B1A687B692D
:10413000D31A3B613A693B689A4202D36FF073032A
:104140000DE07B685B6ADB6A786898470346002B62
:10415000E7D07B680C331846FFF722FAFB69184654
:104160002037BD4680BD00BFF80E002080B588B066
:1041700000AF78607B689B68BB61BB691B697B6132
:104180007B69043318460121FFF774FEF861FB696F
:10419000002B01DAFB6954E07B691B780133FB7467
:1041A000FB7C002B03D16FF01703FB6143E0FB7C2A
:1041B000012B3DD1EFF3108372B6FB81FB893B826B
:1041C0007B69DB78002B10D17B695B6A1B6878699F
:1041D0009847F861FB69002B07DA3B8ABB81BB89F2
:1041E00013F0010F00D162B625E07B695B6A9B6822
:1041F00078699847F861FB69002B0CDA7B695B6A88
:104200005B68786998473B8A7B817B8913F0010F53
:1042100000D162B60FE07B695B6A9B697869012116
:1042200098473B8A3B813B8913F0010F00D162B66E
:104230007B69FA7C1A707B6904331846FFF7B0F982
:10424000FB6918462037BD4680BD00BF80B586B0EB
:1042500000AF78607B689B687B617B691B693B6111
:104260003B69043318460021FFF704FE3B691B78C5
:10427000012B0CD93B691B78013BDAB23B691A7000
:104280003B6904331846FFF78BF9002337E03B699D
:1042900000221A703B695B6A9B6938690021984764
:1042A0007B681B6803F04003002B04D138694FF48E
:1042B000C871FFF7EDFEEFF3108372B6BB81BB89C7
:1042C000FB813B695B6ADB68386998473B69DB784F
:1042D000002B04D13B695B6A5B6838699847FB89AE
:1042E0007B817B8913F0010F00D162B6386900F041
:1042F00051FB3B6904331846FFF752F90023184677
:104300001837BD4680BD00BF80B58CB000AFF860E7
:10431000B9607A60FB689B687B627B6A1B693B6261
:104320003B6A1833FB610023FB62FB6918460121DD
:10433000FFF7A0FDB861BB69002B01DABB6987E01C
:1043400076E0FB699B887B85FB695B889BB2B7F94C
:104350002A201BB29A421FD0FB699A68B7F92A300B
:1043600013441B78FB757B8D01339BB27B85FB6906
:10437000DB88B7F92A201BB29A4201DB00237B8538
:10438000FB697A8D9A80BB685A1CBA60FA7D1A70F4
:10439000FB6A0133FB624BE0FB6A002B00DD4BE064
:1043A000FB681B6803F04003002B03D06FF00A0387
:1043B000FB6241E03B6A5B6A9B69386A002198476F
:1043C000FB695B889AB2FB699B889BB212B21BB2F5
:1043D0009A4227D1EFF3108372B67B827B8ABB822D
:1043E0003B6A5B6A9B69386A012198473B6A0122F4
:1043F0009A703B6A083318460121FFF73BFDB8610C
:10440000BB8A3B823B8A13F0010F00D162B6BB69C5
:10441000002B0DDAFB6A002B03D16FF00303FB6264
:104420000AE009E03B6A5B6A9B69386A01219847A8
:10443000FA6A7B689A4284D33B6A5B6A9B69386AF2
:10444000012198473B6A18331846FFF7A9F8FB6A21
:1044500018463037BD4680BD80B58AB000AFF860E1
:10446000B9607A60FB689B68FB61FB691B69BB6193
:104470007B687B62FDF744FA0346002B04D110F001
:10448000C7FD0346002B14D0EFF3108372B67B8276
:104490007B8ABB82B869B9687A68FFF7D1FD386258
:1044A000BB8A3B823B8A13F0010F00D162B63B6AA4
:1044B00067E0BB690C3318460121FFF7DBFC38626B
:1044C0003B6A002B01DA3B6A5BE0FB681B6803F088
:1044D0004003002B0CBF01230023DBB2FB75BB693B
:1044E0005B6A5B6AB8690021984731E0BB685A1C77
:1044F000BA601B78BB7500233B62BB69DB78002B7D
:1045000009D0BB7D0A2B06D1FB7DB8690D211A4667
:10451000FFF714FD38623B6A002B07DBBA7DFB7D99
:10452000B86911461A46FFF709FD38623B6A002B4D
:104530000BDA7A6A7B689A4204D97A6A7B68D31A62
:104540007B6208E03B6A7B6205E07B68013B7B6045
:104550007B68002BCAD1BB69DB899AB2BB691B8A15
:104560009BB212B21BB29A4205D0BB695B6A5B6A0E
:10457000B86901219847BB690C331846FFF710F85A
:104580007B6A18462837BD4680BD00BF80B590B015
:1045900000AFF860B9607A60FB689B68FB62FB6AF9
:1045A0001B69BB62BB6A5B6A1B69F868B9687A6899
:1045B0009847F863FB6B13F1190F40F0B180BB68AB
:1045C000B3F5427F3ED040F20932934270D040F2C0
:1045D0000732934240F0A480EFF3108372B63B841D
:1045E0003B8CFB84BB6A9B8B9AB2BB6A5B8B9BB296
:1045F00012B21BB29A420ADCBB6A5B8B9BB21AB244
:10460000BB6A9B8B9BB21BB2D31ABB630DE0BB6A28
:10461000DB8B1AB2BB6A5B8B9BB219B2BB6A9B8BFA
:104620009BB21BB2CB1A1344BB63FB8CFB83FB8B8B
:1046300013F0010F00D162B67B68BA6B1A600023D9
:10464000FB636DE0EFF3108372B6BB83BB8BBB845F
:10465000BB6A1B8A9AB2BB6ADB899BB212B21BB2DD
:104660009A420ADCBB6ADB899BB21AB2BB6A1B8A1C
:104670009BB21BB2D31A7B630DE0BB6A5B8A1AB292
:10468000BB6ADB899BB219B2BB6A1B8A9BB21BB2A5
:10469000CB1A13447B63BB8C7B837B8B13F0010FA2
:1046A00000D162B67B687A6B1A600023FB6337E047
:1046B000EFF3108372B63B833B8B7B84BB6ADB8951
:1046C0009AB2BB6A1B8A9BB212B21BB29A420BDA35
:1046D000BB6A1B8A9BB21AB2BB6ADB899BB21BB254
:1046E000D31A013B3B630EE0BB6A5B8A1AB2BB6A1A
:1046F0001B8A9BB219B2BB6ADB899BB21BB2CB1A75
:104700001344013B3B637B8CFB82FB8A13F0010F5C
:1047100000D162B67B683A6B1A600023FB6300BF6E
:10472000FB6B18464037BD4680BD00BF80B58CB0DE
:1047300000AFF860B9601346FB71FB689B68FB61D2
:10474000FB691B69BB61BB690A3318460121FFF78E
:1047500091FB78627B6A002B01DA7B6A9CE0FB7933
:10476000002B00F0868000233B621AE0BA693B6AA6
:104770000A339B0013445B68002B0FD1BA693B6A74
:104780000A339B001344BA685A603B6A0A339B00A1
:10479000BA6913441A1DBB681A6105E03B6A01330C
:1047A0003B623B6A012BE1DD3B6A012B06DDBB6806
:1047B00000221A616FF00F037B6267E0002387F825
:1047C0002F30BB690C3318460021FFF753FBBB6940
:1047D000DB899BB21BB20133BB62BB695B8A1AB235
:1047E000BB6A9A4201DC0023BB62BB691B8A9BB295
:1047F0001AB2BB6A9A420BD0BB681B79DBB203F0DA
:104800000203DAB297F82F301343DBB287F82F3068
:10481000BB690C331846FEF7C3FEBB691833184654
:104820000021FFF727FBBB695B8B9AB2BB699B8BAF
:104830009BB212B21BB29A420BD0BB681B79DBB29F
:1048400003F00103DAB297F82F301343DBB287F895
:104850002F30BB6918331846FEF7A2FE97F82F30A9
:10486000002B13D097F82F30B8691946FFF71EFBBD
:104870000CE0BB681B69002B08D0BB681B697B611F
:104880007B6900221A60BB6800221A61BB690A3387
:104890001846FEF785FE7B6A18463037BD4680BD58
:1048A00080B582B000AF786039603B680C33184641
:1048B0000021012200F08AFF3B68183318460021CE
:1048C000012200F083FF3B680433184600210122D7
:1048D00000F07CFF3B68063318460021002200F000
:1048E00075FF3B68083318460021002200F06EFF78
:1048F0003B680A3318460021012200F067FF3B683D
:1049000006331846002100F0D3FF3B6808331846F1
:10491000002100F0CDFF786805494FF4DB723B6859
:104920000AF0FEFC034618460837BD4680BD00BFAE
:1049300040A4010880B582B000AF78607B689B78A6
:10494000DBB2002B07D07B6800229A707B680833AB
:104950001846FEF725FE78680121FFF7A7FA083709
:10496000BD4680BD80B582B000AF78607B685B7863
:10497000DBB2002B07D07B6800225A707B680633BD
:104980001846FEF70DFE78680221FFF78FFA083708
:10499000BD4680BD80B582B000AF78607B680633CD
:1049A0001846002110F092FD7B680833184600215C
:1049B00010F08CFD7B680C331846012110F086FD49
:1049C0007B6818331846012110F080FD7B680A339C
:1049D0001846012110F07AFD0837BD4680BD00BFA2
:1049E00080B584B000AF78600023FB8124E07B6851
:1049F0005B6A1B6A7A6851697A68128A92B212B24B
:104A00000A441278786811469847FB890133FB8184
:104A10007B681B8A9BB29BB201339BB29BB29BB259
:104A20007A68194611827A68518A1AB20BB29A4290
:104A300002DB7B6800221A827B68DB899AB27B6882
:104A40001B8A9BB212B21BB29A4207D07B685B6A88
:104A50009B6A786898470346002BC8D17B68DB893E
:104A60009AB27B681B8A9BB212B21BB29A4205D1E2
:104A70007B685B6A5B6A786800219847FB89002B3A
:104A800002D07868FFF76EFF1037BD4680BD00BFCB
:104A900080B588B000AF78607B6818337B617B6934
:104AA0005B889BB21BB20133FB6100237B837B6974
:104AB000DB881AB2FB699A4201DC0023FB6132E019
:104AC0007B699B889BB21AB2FB699A420CBF012397
:104AD0000023DBB2FB747B685B6A5B6907F10C0245
:104AE0007868114698470346BB74FB7C002B1AD1AB
:104AF0007B699A687B695B889BB21BB21344BA7C62
:104B00001A707B8B01337B83FB699AB27B695A8075
:104B1000FB690133FB617B69DB881BB2FA699A424E
:104B200001DB0023FB617B685B6ADB69786898477F
:104B30000346002BC4D17B8B002B02D07868FFF793
:104B4000F9FE2037BD4680BD80B500AF034B1B6822
:104B50009B6898470346184680BD00BF540000205C
:104B600080B584B000AF0346FB710023FB60FB7986
:104B7000022B02D100F006F8F860FB6818461037E7
:104B8000BD4680BD80B582B000AF0A4802214FF417
:104B9000D27200F043FB78607B68002B01DA7B68FF
:104BA00003E0054800F0A8FA034618460837BD465A
:104BB00080BD00BF70A4010860A4010880B584B066
:104BC00000AF78600B46FB700023FB601AE0FB68C7
:104BD0002C2202FB03F37A6813440433BB60BB68E6
:104BE0001B8D002B00D110E0BB68198DBA68BB6823
:104BF000083309B208461146012210F0EBFCFB68AD
:104C00000133FB60FB68002BE1DD00231846103701
:104C1000BD4680BD80B483B000AF78607B68002261
:104C20005A60002318460C37BD465DF8047B704778
:104C300080B483B000AF7860002318460C37BD46BF
:104C40005DF8047B704700BF80B588B000AFF860A6
:104C5000B9607A60FB689B68FB61FB691B69BB619B
:104C60007B68002B01D100231BE0FB685B68002BF5
:104C700001DD002315E0BB691B6B1B68B869B968CF
:104C8000984778617B69002B01DA7B6909E0BB6892
:104C90001B783033DAB2BB681A70FB6801225A60A5
:104CA000012318462037BD4680BD00BF80B588B0BF
:104CB00000AFF860B9607A60FB689B68BB61BB6954
:104CC0001B697B617B691B78012B02D06FF00C03A1
:104CD00023E07B68002B1FD0BB681B78302B02D1F0
:104CE0000023FB7709E0BB681B78312B02D101233D
:104CF000FB7702E06FF015030FE07B691B6B5B68CD
:104D0000FA7F78691146984738613B69002B01DAD0
:104D10003B6902E0012300E0002318462037BD462E
:104D200080BD00BF80B485B000AFF860B9607A6024
:104D30007B68012B02D07B68022B02D16FF05703F6
:104D40000CE07B68002B07D1BB68002B04D1FB680B
:104D500000225A60002301E06FF015031846143753
:104D6000BD465DF8047B704780B590B000AFF86039
:104D7000B9607A6000237B63FB689B683B633B6B95
:104D80001B69FB62BB68A3F50C53013B052B00F2CA
:104D90002E8101A252F823F0B14D0008D54D000834
:104DA000E94D0008FB4D0008C14E0008DB4F00082C
:104DB000FB6A1B78012B09D1FB6A1B6B5B687A6865
:104DC000D2B2F86A11469847F86314E16FF00C0309
:104DD000FB6310E17B68BB62FB6A1B6B1B68F86AB4
:104DE000B96A9847F86306E17B687B62FB6A1A78C8
:104DF0007B6A1A700023FB63FDE07B68002B5AD0AE
:104E0000FB6A1B78022B56D110F09CFC03467B8476
:104E1000EFF3108372B67B837B8B3B840023BB63F1
:104E200022E0BB6B2C2202FB03F3FA6A1344043327
:104E3000FB61FB691B8D002B06D0FB691B8DB7F94D
:104E400022201BB29A420CD1FA697B68104619469F
:104E5000082201F0B1FCFB697A8C1A850023FB6300
:104E600005E0BB6B0133BB63BB6B002BD9DD3B8C17
:104E70003B833B8B13F0010F00D162B6BB6B002B61
:104E800011D1FB6A1B6B9B68F86A5D499847F86310
:104E9000FB6B002B0EDBFB6A1B6BDB68F86A0121E6
:104EA0009847F8630BE0BB6B012B03D16FF00F0346
:104EB000FB6304E003E06FF00C03FB639BE09AE00C
:104EC000FB6A1B78022B40F0838010F03BFC03460A
:104ED0007B84EFF3108372B6FB82FB8A3B84002352
:104EE000BB634AE0FA6ABB6B2C2101FB03F313445A
:104EF00028339B88B7F922201BB29A423AD1BB6B68
:104F000001337B630DE0FA6A7B6B2C2101FB03F319
:104F1000134428339B88002B00D105E07B6B0133C1
:104F20007B637B6B002BEEDD7B6B013B7B637A6BE2
:104F3000BB6B9A4212D0BB6B2C2202FB03F3FA6AC2
:104F40001344191D7B6B2C2202FB03F3FA6A1344F2
:104F50000433084619462C2201F02EFCFA6A7B6BBA
:104F60002C2101FB03F31344283300229A800023F1
:104F7000FB6305E0BB6B0133BB63BB6B002BB1DD97
:104F80003B8CBB82BB8A13F0010F00D162B6BB6BB6
:104F9000002B15D17B6B002B12D1FB6A1B6BDB68DE
:104FA000F86A00219847F863FB6B002B07DBFB6A6C
:104FB0001B6B9B68F86A00219847F86307E006E0DE
:104FC000BB6B012B08D16FF01503FB6304E003E01A
:104FD0006FF00C03FB630EE00DE0FB6A1B6B1B69BB
:104FE0007A68D2B2F86A11469847F86303E06FF026
:104FF0001803FB6300BFFB6B18464037BD4680BDFE
:10500000BD4B000880B588B000AF786039607B6820
:105010001B78012B06D0022B07D0002B14D1174B85
:10502000FB6114E0164BFB6111E07B681B6BDB68D6
:10503000786800219847B861BB69002B01DABB6929
:1050400017E0104BFB6102E06FF0150311E03B68C5
:1050500007F1080210461021FA6900F0BFFC07F1C1
:105060000803184608494FF4DB727B680AF058F9C8
:10507000034618462037BD4680BD00BFA0A40108E6
:10508000ACA40108BCA4010880A4010880B588B0C4
:1050900000AF786039607B681B78012B07D0022B4A
:1050A00008D0002B00D015E00C4BFB6105E00C4B49
:1050B000FB6102E00B4BFB6100BF3B6807F10C0298
:1050C00010461021FA6900F089FC07F10C0318461C
:1050D0000AF050F92037BD4680BD00BFA0A40108EA
:1050E000ACA40108BCA4010880B400AF002318469A
:1050F000BD465DF8047B704780B483B000AF786034
:105100007B68002B04D0064A7B681360002301E013
:105110006FF0150318460C37BD465DF8047B7047E9
:105120005400002080B582B000AF10F00BFB0346A6
:10513000FB800D4BDB88B7F906201BB29A4202D1E7
:105140006FF00A030CE0094810F030F838603B6853
:10515000002B01DA3B6803E0034AFB88D38000237D
:1051600018460837BD4680BDC0080020C40800208E
:1051700080B500AF034B4FF6FF72DA800248FEF7AE
:105180000FFA80BDC0080020C408002080B582B09E
:1051900000AFFCF7B5FB0346002B04D110F0D2FAA8
:1051A0000346002B02D16FF0570331E01A4B1B78F6
:1051B000042B2CD0184B1B78002B03D0164B1B78DC
:1051C000012B02D16FF00A0322E0134B1B78032B53
:1051D00002D16FF005031BE0FDF764FB0E4B1B785B
:1051E000022B12D10C4B9A690B4B5B7819460A4B78
:1051F0005B8810461A4600F011F878607B68002B37
:1052000003DAFDF76DFB7B6802E0FDF769FB002325
:1052100018460837BD4680BDC008002080B586B05E
:1052200000AFF860B9607A601A4B1B78022B0DD082
:10523000BB68DAB2174B5A707B689AB2154B5A802A
:10524000F86801F065FA0246124B9A61114B01228F
:105250001A701148F968BA687B6808F0DDFF786158
:105260007B69002B04DA0B4B02221A707B690CE07D
:105270000A480021012200F0A9FA064B4FF6FF72FE
:10528000DA80044B04221A70002318461837BD46F2
:1052900080BD00BFC0080020C8080020C40800204E
:1052A00080B588B000AF78603960FFF76FFF786134
:1052B0007B69002B01DA7B697DE0FFF733FF7861C2
:1052C0007B69002B01DA7B6975E07B68FB613B68D9
:1052D000BB6153E0FB691B780D2B03D0FB691B7886
:1052E0000A2B45D1BB69012B18D9FB691B780D2B03
:1052F00004D1FB6901331B780A2B08D0FB691B78AA
:105300000A2B0BD1FB6901331B780D2B06D1FB69EE
:105310000133FB61BB69013BBB6129E0FA697B6832
:10532000D31A3B613B69002B0BD0254879683A6959
:1053300009F0BEFEF860FB68002B02DAFB687B61B7
:1053400036E0FB691B780A2B0BD11D481D49022250
:1053500009F0AEFEF860FB68002B02DAFB687B61A7
:1053600026E03B6901333B617A683B6913447B600B
:10537000FB690133FB61BB69013BBB61BB69002B6E
:10538000A8D1FA697B68D31A3B613B69002B0BD02B
:105390000B4879683A6909F08BFEF860FB68002BCE
:1053A00002DAFB687B6103E0FFF7E2FE3B6802E0A4
:1053B000FFF7DEFE7B6918462037BD4680BD00BF83
:1053C000C8080020DCA4010880B586B000AF786072
:1053D000FFF7DCFE38613B69002B01DA3B692EE008
:1053E0007B680D2B01D17B6829E0FFF79BFE3861BC
:1053F0003B69002B01DA3B6921E07B680A2B0BD16A
:1054000011481249022209F053FE78617B69002B92
:105410000DDD00F01DF80AE07B68DBB2FB7307F1DD
:105420000F0309481946012209F042FE7861FFF78F
:105430009FFE7B69002B01DA7B6900E07B681846E0
:105440001837BD4680BD00BFC8080020DCA4010895
:1054500080B400AF00231846BD465DF8047B70475A
:1054600080B586B000AF78607B68B8333B613B693C
:1054700018460021012200F0A9F900237B611FE0FA
:105480007A691346DB0013449B003A6913440433E2
:10549000FB60F8680021242201F004F9FB684FF05A
:1054A000FF321A607A691346DB0013449B003A69A5
:1054B00013440433184600F03DF87B6901337B61E7
:1054C0007B69072BDCDD1837BD4680BD80B586B013
:1054D00000AF78607B68B8333B613B691846FEF7E4
:1054E00045F800237B611FE07A691346DB00134413
:1054F0009B003A6913440433FB60FB68043318468D
:10550000FEF734F8FB68DB68002B0AD0FB689B7F52
:1055100003F00803002B04D1FB68DB681846FDF795
:10552000A5FF7B6901337B617B69072BDCDD1837C5
:10553000BD4680BD80B582B000AF78607B68043323
:1055400018460021012200F041F97B684FF6FF72F6
:10555000DA807B6800229A600837BD4680BD00BFB4
:1055600080B584B000AF786010F0ECF80346FB81A2
:105570007B68DB88B7F90E201BB29A4205D17B68A5
:105580009B685A1C7B689A600FE000BF7B680433FD
:1055900018460FF067FEB860BB68002BF6DB7B682F
:1055A000FA89DA807B6801229A601037BD4680BD97
:1055B00080B582B000AF78607B689B68012B05DD09
:1055C0007B689B685A1E7B689A600BE07B684FF68D
:1055D000FF72DA807B6800229A607B680433184689
:1055E000FEF728F80837BD4680BD00BF80B483B001
:1055F00000AF786039607B6800221A603B681B68E6
:10560000002B06D13B687A681A603B687A685A605A
:1056100006E03B685B687A681A603B687A685A60A3
:105620000C37BD465DF8047B704700BF80B584B081
:1056300000AF786039603B681B68002B2AD07B681C
:10564000002B27D03B681A687B689A420CD17B6894
:105650001A683B681A603B685A687B689A4219D19D
:105660003B6800225A6015E03B681B68FB6002E063
:10567000FB681B68FB60FB68002B04D0FB681A68A2
:105680007B689A42F4D1FB68002B03D0F868396834
:1056900000F024F81037BD4680BD00BF80B485B04F
:1056A00000AF78607B681B68FB60FB68002B0DD047
:1056B000FB681A687B681A607B681B68002B02D144
:1056C0007B6800225A60FB6800221A60FB6818465B
:1056D0001437BD465DF8047B704700BF80B485B0C9
:1056E00000AF786039607B681B68FB603B681B68B3
:1056F000002B15D0FB68002B12D03B685A68FB6862
:105700009A4206D13B687A685A607B6800221A6028
:1057100003E0FB681A687B681A60FB6800221A6065
:10572000FB6818461437BD465DF8047B704700BF20
:1057300080B483B000AF786039607B6800225A6023
:105740003B681A687B681A603B681B68002B06D1AF
:105750003B687A681A603B687A685A6006E03B6882
:105760001B687A685A603B687A681A600C37BD46D5
:105770005DF8047B704700BF80B485B000AF7860EF
:1057800039607B685B68FB607B681B68BB60FB689B
:10579000002B03D13B68BA681A6002E0FB68BA6864
:1057A0001A60BB68002B03D13B68FA685A6002E0BC
:1057B000BB68FA685A607B6800221A607B68002226
:1057C0005A601437BD465DF8047B704780B485B0DD
:1057D00000AFF860B9607A60FB68002B09D07B6885
:1057E000B3F5004F05D27B689AB2FB681A8000239C
:1057F00001E06FF0150318461437BD465DF8047BD1
:10580000704700BF80B586B000AFF860B9607A60BD
:10581000F868B9687A68FFF7D9FF78617B69002B6F
:1058200008DAFCF737FA02467B695B4213604FF0F7
:10583000FF337B617B6918461837BD4680BD00BFCA
:1058400080B483B000AF786039607B68002B0AD0E9
:105850003B68002B07D07B681B889BB21AB23B6861
:105860001A60002301E06FF0150318460C37BD469F
:105870005DF8047B704700BF80B584B000AF7860EE
:10588000396078683968FFF7DBFFF860FB68002B48
:1058900008DAFCF7FFF90246FB685B4213604FF041
:1058A000FF33FB60FB6818461037BD4680BD00BF64
:1058B00080B483B000AF786039603B68002B04D0BF
:1058C000002B07DB022B05DC01E0002305E06FF075
:1058D000570302E000BF6FF0150318460C37BD46B2
:1058E0005DF8047B704700BF80B584B000AF78607E
:1058F000396078683968FFF7DBFFF860FB68002BD8
:1059000008DAFCF7C7F90246FB685B4213604FF008
:10591000FF33FB60FB6818461037BD4680BD00BFF3
:1059200080B582B000AF786039603B681F2B07D923
:10593000FCF7B0F90246162313604FF0FF3309E07D
:105940007B681A6801213B6801FA03F31A437B68FC
:105950001A60002318460837BD4680BD80B582B066
:1059600000AF786039603B681F2B07D9FCF792F9CC
:105970000246162313604FF0FF330AE07B681A6873
:1059800001213B6801FA03F3DB431A407B681A608C
:10599000002318460837BD4680BD00BF80B485B0DF
:1059A00000AF786039604FF0FF33FB603B681F2B1E
:1059B0000CD87B681A683B6822FA03F303F00103F2
:1059C000002B14BF01230023DBB2FB60FB681846E9
:1059D0001437BD465DF8047B704700BF0CB480B53A
:1059E0008AB000AF786039603B68002B0BD03B6811
:1059F00007F10C02104679681A4600F045F807F1E5
:105A00000C037B6207E007F10C03184600F070F806
:105A100007F10C037B6207F13403BB60786A396BD2
:105A2000BA6800F021FD38623B6A18462837BD4647
:105A3000BDE8804002B0704780B485B000AF7860A8
:105A400039607B68FB607B689B681A46FB681B6952
:105A50009A4213D2FB68DB687A68926813443A680A
:105A6000D2B21A707B689B685A1C7B689A60FB688C
:105A7000DB687A689268134400221A701437BD46B6
:105A80005DF8047B704700BF80B485B000AFF8605C
:105A9000B9607A60FB680C4A1A60FB680B4A5A606E
:105AA000FB6800229A60FB68BA68DA607B68013B99
:105AB0001A46FB681A61FB68DB6800221A7014370B
:105AC000BD465DF8047B7047395A00081D5B00082D
:105AD00080B483B000AF786039607B689B685A1CE3
